:020000040800F2
:10000000F8EF01205D0200083127010859F30008CC
:10001000B92601080D2D000805AB010800000000FD
:10002000000000000000000000000000E58E010854
:10003000796B0008000000002F1E00081D3C01081D
:1000400077020008770200087702000877020008AC
:10005000770200087702000877020008770200089C
:10006000770200087702000877020008770200088C
:10007000770200087702000877020008770200087C
:1000800077020008770200081521000877020008AF
:10009000770200087702000877020008770200085C
:1000A000770200087702000877020008770200084C
:1000B000770200087702000877020008770200083C
:1000C000770200087702000877020008770200082C
:1000D0007702000865A70108770200087702000888
:1000E000770200087702000877020008770200080C
:1000F000C19501087702000877020008770200081E
:1001000077020008D9750108770200087702000815
:1001100077020008770200087702000877020008DB
:10012000770200087702000877020008F93A000811
:1001300077020008770200087702000877020008BB
:1001400077020008770200087702000877020008AB
:10015000770200087702000877020008770200089B
:10016000770200087702000877020008770200088B
:10017000770200087702000877020008770200087B
:1001800077020008770200084B1C012B98BF7047CC
:100190002DE9F003911C9B08B1F80480B1F802909E
:1001A0000A8831F802CC8044814402448444D9F85E
:1001B0000070D8F800601568DCF80040C9F80060ED
:1001C000C8F80070CCF800501460D9F80470D8F862
:1001D00004605568DCF80440C9F80460C8F804708D
:1001E000CCF80450546008315B1ED5D1BDE8F00353
:1001F00070474B1C012B98BF70472DE9F003911CF1
:100200009B08B1F80480B1F802900A8831F802CC5A
:1002100000EB580800EB590900EB520200EB5C0CB4
:10022000D9F80070D8F800601568DCF80040C9F80B
:100230000060C8F80070CCF80050146008315B1EF4
:10024000DFD1BDE8F0037047DFF80CD001F028FDE6
:1002500000480047A5860208F8EF012006488047BD
:1002600006480047FEE7FEE7FEE7FEE7FEE7FEE79B
:10027000FEE7FEE7FEE7FEE7ED9001084902000811
:1002800072B6704762B67047EFF3108072B670476F
:1002900080F31088704730BF704720BF7047B0FAB6
:1002A00080F0704790FAA0F0B0FA80F0704790FAB2
:1002B000A0F070479FED3D0A5FEA920C57D000BF57
:1002C000D0ED000A90ED011A0B1D60EEA00A083077
:1002D00041EE010AF5EEC00AF1EE10FAC6BFB1EE2A
:1002E000E01A81ED001A81ED000AD0ED000A90EDD0
:1002F000011A191D60EEA00A083041EE010AF5EE60
:10030000C00AF1EE10FAC6BFB1EEE01A83ED001A92
:1003100083ED000AD0ED000A90ED011A0B1D60EE8E
:10032000A00A083041EE010AF5EEC00AF1EE10FA1B
:10033000C6BFB1EEE01A81ED001A81ED000A90ED22
:10034000001AD0ED010A191D21EE011A083000EE45
:10035000A01AB5EEC01AF1EE10FAC6BFF1EEC10A4E
:10036000C3ED000A83ED000ABCF1010CA8D112F024
:10037000030208BF704700BFD0ED000A90ED011ADC
:100380000B4660EEA00A091D083041EE010AF5EEA9
:10039000C00AF1EE10FAC6BFB1EEE01A83ED001A02
:1003A00083ED000A521EE7D17047000000000000F4
:1003B0002DE9F00F6FF003042DED0C8B5FEAD30AEB
:1003C000D0E901C7B0F8009004EB89040CEB0408F5
:1003D0009FEDFE9A18BF4FEAD90B00F0C18100BF14
:1003E00091ED000AB0EE493A88ED000A91ED010A5C
:1003F000F0EE430A88ED010A91ED020AB0EE431ACD
:1004000088ED020A91ED030AF0EE431A88ED030A23
:1004100091ED040AB0EE432A88ED040A91ED050A35
:10042000F0EE432A88ED050A91ED060AF0EE433A14
:1004300088ED060A91ED070A203188ED070ADCED08
:10044000007A9CED017ADCED026A9CED036ADCED3A
:10045000045A9CED055ADCED064AB0EE434A3D468F
:100460000CF11C0408F120085FEA0B0600F026815D
:10047000D5ED008A94ED008A26EE280A65EEA89A4A
:1004800025EE28AA27EEA8BA64EEA8AA67EE28BA35
:1004900026EEA8CA68EE28CAD5ED018A32EE000A17
:1004A00032EEA92A73EE0A2A30EE8BBA33EEAA3A5C
:1004B000D5ED020A74EE2C3A71EE8C1AD4ED017A65
:1004C00031EE2B1A27EE28DA26EEA8CA66EE28BAF5
:1004D00025EEA84A65EE289A24EEA8AA68EE28AA76
:1004E00067EEA8CA94ED027A7BEE0D8A31EE0C1A03
:1004F00071EEAB1A30EE040A32EE292A72EE8A2A25
:1005000033EE2A3A73EEAC3A66EEA0CA66EE20BA33
:1005100065EEA09A25EE20AA24EEA04A68EE20AA55
:1005200027EEA0BA27EE20CAD5ED030AD4ED036A60
:1005300030EE0A0A32EE042A78EEAC8A31EE2B1A3B
:1005400071EEA91A72EEAA2A33EE0B3A73EE8C3AC8
:1005500066EE20CA65EEA0BA65EE209A24EEA04AA7
:1005600028EE20AA67EEA0AA27EE20BA26EEA0CA9F
:10057000D5ED040A78EEAC8A31EE2B1A71EEA91A89
:1005800030EE040A32EE0A2A72EEAA2A33EE0B3A51
:1005900073EE8C3A65EEA0CA94ED046A65EE20BA5B
:1005A00024EEA0BA28EE204A67EEA09A27EE20AAF1
:1005B00066EEA0AA26EE20CAD5ED050AD4ED055AAE
:1005C00031EE2B1A71EE8B1A78EEAC8A30EE040AFB
:1005D00032EE292A72EE8A2A33EE2A3A73EE8C3AE8
:1005E00065EE20CA24EEA0BA68EE20BA27EEA04A33
:1005F00067EE209A26EEA0AA66EE20AA25EEA0CAF3
:10060000D5ED060A30EE040A32EE292A27EE204AFA
:1006100094ED065A72EE8A2A66EEA09A78EEAC8ABB
:1006200031EE0B1A71EEAB1A33EE2A3A73EE8C3AB6
:1006300026EE20AA65EEA0AA64EEA0BA28EE20CA93
:1006400027EEA0BA65EE20CAD5ED070A30EE040AFF
:1006500032EE294A72EE8A9A33EE2AAAD4ED074A7C
:1006600031EE0C1A78EEAB8A28EE20CA71EE8B1AA6
:1006700073EEACAA66EE202A67EEA0BA27EE20BA87
:1006800026EEA02A25EEA03A65EE203A24EEA08AB6
:1006900074EE222A78EE8C0A31EE2B1A71EE8B1A48
:1006A00030EE022A39EE833A7AEE233A3AEE884A5D
:1006B00020342035761E7FF4DBAE00BF19F007062C
:1006C00036D000BF95ED008A94ED000A241D67EE38
:1006D000889A67EE088A26EE88AA66EE08AA25EEB2
:1006E00088BA65EE08BA24EE88CA20EE088AF0EED1
:1006F000477AB0EE667AF0EE466AB0EE656AF0EEE2
:10070000455A70EEA90A31EE281A71EE8A1A32EEB5
:100710002A2A72EE8B2A33EE2B3A73EE8C3A34EEA1
:10072000084AB0EE645A2D1DF0EE404A761EC9D13B
:10073000C2ED000A82ED011AC2ED021A82ED032A0F
:10074000C2ED042A82ED053AC2ED063A82ED074A6F
:100750002032BAF1010A0CF1200C7FF441AE00BF47
:1007600013F0070A43D000BFB1EC010A3E1D0CF1A3
:100770000404B9F10103A8EC010ADCED000A97EDCD
:10078000001AB0EE490A00EE810A29D0B3F1004FF9
:100790007DD2002B24DD251F341F13F0010F07D05D
:1007A000D5ED010A94ED011A241D2D1D00EE810ADC
:1007B0005B1015D0D5ED010A94ED011A00EE810A07
:1007C000D5ED020A94ED021A02E0000000000000DC
:1007D00000EE810A5B1E04F1080405F10805E9D169
:1007E000A2EC010ABAF1010A0CF1040CBCD1406878
:1007F000A9F10104A3081FD0B3F1004F54D2002B7C
:100800001ADD624601461D4692ED000A81ED000A9E
:1008100092ED010A81ED010A92ED020A81ED020AD0
:1008200092ED030A103281ED030A10316D1EEBD1F7
:100830000CEB031C00EB031014F0030202BFBDEC31
:100840000C8BBDE8F00F7047B2F1004F42D2002A86
:100850001ADD001FACF1040112F0010F05D091ED7B
:10086000010A80ED010A001D091D52080CD000BFCD
:1008700091ED010A80ED010A91ED020A083180ED47
:10088000020A0830521EF3D1BDEC0C8B00E002E0EE
:10089000BDE8F00F7047F4EC010A5B1EB6EC011ADC
:1008A00000EE810AF7D19BE79CED000A80ED000A7B
:1008B0009CED010A80ED010A9CED020A80ED020A1E
:1008C0009CED030A0CF1100C80ED030A10305B1E46
:1008D000EAD1B1E7BCEC010A521EA0EC010AF9D141
:1008E000D2E770B504460498218008448000011FB7
:1008F0001D461846A26000F0B7FF656070BD91ED1F
:10090000000AD1ED010AD0F814C030EE001A70EEE2
:10091000A00A0088B6EE000A431E71EE201A71EE9E
:10092000600A0CF1080001EBC30C61EE801A60EE66
:10093000800A0831C2ED001AC2ED010A08329CEDAE
:10094000003A91ED001ADCED010AD1ED011A73EEC7
:10095000413AD0ED002A90ED012A30EEA14A62EE34
:10096000A34A31EE031A62EE233A71EEE00A22EE58
:10097000042A31EE241A62EE842A70EEA30A0830AB
:1009800031EE021A083170EEE20AACF1080C21EEE9
:10099000001A60EE800A82ED001AC2ED010A0832E8
:1009A0005B1ECCD17047D1ED000A91ED011AD0F851
:1009B00014C0008870EE811A70EEC10AB6EE000A0B
:1009C000431E61EE801A60EE800A0CF10800C2ED51
:1009D000001AC2ED010A01EBC30C01F1080102F19A
:1009E000080208BF7047DCED010A9CED003A91ED6A
:1009F000002A91ED011A90ED004A72EE431AD0EDF3
:100A0000013A71EE202A32EE032A64EE214A63EEA7
:100A1000A11A71EE600A23EEA25A32EE642A64EE45
:100A2000222A70EEA10A083032EE452A083170EE13
:100A3000E20AACF1080C22EE002A60EE800A82ED98
:100A4000002AC2ED010A08325B1ECCD170472DE9A5
:100A5000F0410446008A1D004FEA500016460F463A
:100A600020800AD02046FFF79EFF2A4631462046C6
:100A7000BDE8F041012300F08BBB01232A4620464C
:100A800000F086FB324639462046BDE8F04136E7A5
:100A90004A08002302800182B2F5807F31D008DC51
:100AA000102A4FD0202A45D0402A3BD0802A31D06E
:100AB00008E0B2F5007F1BD0B2F5806F0FD0B2F521
:100AC000006F03D04FF0FF33184670474FF46E624B
:100AD0008281214A8260214A2149426039E04FF4F3
:100AE000E16282811F4A82601F4A2049426030E0F1
:100AF0004FF4E07282811E4A82601E4A1E494260A3
:100B000027E04FF4DC7282811C4A82601C4A1D4936
:100B100042601EE0D02282811B4A82601B4A1C492F
:100B2000426016E0382282811A4A82601A4A1B49C2
:100B300042600EE030228281194A8260194A1A49C5
:100B4000426006E014228281184A8260184A1949DC
:100B500042604161B8E7000044120408ACBA0308DF
:100B6000846F040834040408AC9A0308844F040812
:100B7000B4000408AC8A0308843F040844FD030859
:100B8000AC82030884370408A4FB0308AC7E030886
:100B90008433040834FB0308AC7C03088431040864
:100BA000D4FA0308AC7B030884300408ACFA0308C9
:100BB0002C7B0308043004082DE9F04106462DED96
:100BC000028B8C460088736801EB80044508274639
:100BD00001EB850004EB85025FEA95087DD000BF3C
:100BE000D1ED003AD4ED001A91ED012A94ED013ACD
:100BF00073EEA16A91ED024A91ED031AD4ED022A37
:100C0000D4ED035A90ED008A90ED017A90ED020A3E
:100C100090ED036A92ED005AD2ED014AD2ED027ACC
:100C2000D2ED030AC1ED006A72EE036A73EEE13A97
:100C300074EEC71AC1ED016A74EE226A74EE622A7C
:100C400037EEC04AC1ED026A71EE256AC1ED036A52
:100C500072EE436A31EE652A38EE051A35EE483AEF
:100C600080ED001A37EE241A80ED011A30EE271AB3
:100C700080ED021A36EE201A80ED031A30EEC61A05
:100C800093ED000AD3ED010A63EE804A26EEA05AE6
:100C900066EE805A63EEA03A74EE854A75EEE33A4A
:100CA000C4ED004A63EE204AC4ED013A61EE803A99
:100CB00061EEA00A23EE000A74EEE31A30EE800A19
:100CC000C2ED001A82ED010A93ED020AD3ED030A88
:100CD00062EE803A22EE203A00E024E062EEA01AB2
:100CE00022EE002A73EE832A1030103172EE611A60
:100CF000C4ED022A24EE202AC4ED031A61EE001A84
:100D000061EE200A24EE000A103332EE611A10342C
:100D100030EE800A82ED021A82ED030A1032B8F139
:100D200001087FF45DAF294602236046726800F037
:100D3000D5FA72682946BDEC028B3846BDE8F04111
:100D4000022300F0CBBA2DE9F34F2DED048B87B0D1
:100D50000B980088470801EB870000EB870606EB3D
:100D60008705CDE90056DDF82C80A5F1040C0CEBCD
:100D70008703CDE902014FEA5709D8F80480042718
:100D8000CDE90497D1ED000A96ED000A90ED011A25
:100D900095ED013A70EE802A70EEC03AD1ED010A6D
:100DA00096ED010A041F321F30EE802A70EEC01A41
:100DB00031EE230AD0ED000A32EE415A33EEC11A69
:100DC00030EE434A71EEE04A95ED000A70EEA11A4A
:100DD00035EE435A74EE805A72EEE04A70EEA20A83
:100DE00071EEC01A31EE031A74EEC04A30EE800A7A
:100DF000062708F1080A81ED000A90ED010AD5EDF9
:100E0000010A08F1100B30EE020A08F1180830EE62
:100E1000200A81ED010A80ED004AC0ED015AC6EDBD
:100E2000004A86ED015A85ED001AC5ED011ADDF87C
:100E300010900830083108350836A9F102095FEA38
:100E4000590900F0078100BFD1ED000A96ED000AB4
:100E5000D0ED011AD5ED014A30EE802A30EEC05AAD
:100E6000D1ED010A96ED010A70EE802A30EEC01A2B
:100E700031EE850AD5ED000A30EE644A90ED000AA5
:100E800031EE403A30EE011A73EE205A32EE403A1B
:100E900030EE020A31EE601A73EE603A30EE200A4C
:100EA00032EEE13A75EE611A81ED000A90ED010A29
:100EB000D5ED010A33EE643A30EE220A71EEA41A3F
:100EC00030EE200A81ED010AD4ED002ADCED004A63
:100ED00054ED010A1CED010A32EEA47A32EEE49AD6
:100EE00072EEE42A52ED018A70EE807A30EEC02A6A
:100EF00072EEE82AD2ED000A93ED000A13ED018AA2
:100F000030EEC05A72EE886A77EEE82A35EE026A51
:100F100032EEC85A77EE602A72EEC04A70EEC02AEE
:100F200070EE870A72EEC22A30EE800A38EE682A26
:100F300084ED000A12ED010A53ED010A32EE492A4E
:100F400030EE270A30EE200A04ED010A9AED000A7D
:100F5000DAED010A64EE007A25EEA07A65EE805A99
:100F600024EE204A37EE877A35EEC44A80ED007AC7
:100F700080ED014A26EEA04A66EE005A66EE200A8F
:100F800026EE800A083034EE654A083130EE800AD9
:100F900082ED004A083C02ED010A9BED000ADBED00
:100FA000010ADDF814E023EE804A63EE205A23EEB6
:100FB000003A63EEA03A083A34EE254A0BEB8E0B6A
:100FC00033EE633A86ED004A0AF1080A86ED013AEB
:100FD000B1EE643A083663EE003A25EE203A25EE8B
:100FE000000A64EEA00A33EEC33A30EEC00A8CED7C
:100FF000003A0CED010A98ED000AD8ED010A08EB61
:10100000870861EE803A21EE203A21EE001A61EE67
:10101000A01AACF1080C33EE833A31EE611A85ED7B
:10102000003A62EE801A85ED011A22EE201A62EE75
:10103000A00A22EE000A083531EE611A30EE800A6D
:1010400083ED001A03ED010A083BB9F101097FF4B1
:10105000FBAE00BFD1ED000A96ED000A91ED011A3A
:10106000D0ED015A30EE802A70EEC00A96ED010AEA
:1010700095ED015A042371EE001A71EE404A35EEE7
:10108000A00A90ED001A31EEE54A70EEE50A30EE66
:10109000453A95ED000A34EE454A30EE855A74EE35
:1010A000C12A72EE413A71EE240A31EE021A72EE52
:1010B000802A73EEC03A70EEC00A31EE000A81ED6C
:1010C000000A90ED010A95ED011A30EE210A30EE8A
:1010D000010A81ED010A9AED000A9AED011A63EE08
:1010E000001A22EE812A22EE800A23EE011A71EE06
:1010F000821A30EE410AC0ED001A80ED010A9BED24
:10110000000A9BED011A63EE801A24EE012A24EEF8
:10111000000A23EE811A71EE821A30EE410AC6ED02
:10112000001A86ED010A98ED010A98ED001A60EEAA
:10113000801A25EE012A60EE810A25EE000A32EEC1
:10114000211A30EEC00A85ED001A85ED010A0B98D0
:101150004268DDE9030100F0C1F80B98042304990B
:101160004268029800F0BAF80B9804230499426888
:10117000019800F0B3F80B98049904234268009892
:1011800007B0BDEC048B02B0BDE8F04F00F0A6B88C
:101190002DE9F0410488984617460D460646012A77
:1011A00020D1281DF4B1A0F1080114F0010F06D0E0
:1011B00091ED020AB1EE400A81ED020A08315FEAC0
:1011C000540C0FD091ED020AB1EE400A81ED020AF3
:1011D00091ED040AB1EE400A81ED040A1031BCF130
:1011E000010CEFD1B4F5807F1BD008DC102C13D09C
:1011F000202C16D0402C19D0802C0DD01CE0B4F53A
:10120000007F13D0B4F5806F06D0B4F5006F08D01E
:10121000B4F5805F0AD00FE029463046FFF7CCFCDA
:101220000AE029463046FFF78EFD05E021460123FE
:101230002846726800F052F8B8F1000F04D0B18966
:101240002846B268FEF7A0FF012F18BFBDE8F08165
:1012500000EE104AB7EE001A002CF8EE400A81EEBC
:10126000200A08BFBDE8F081A5F1080014F0010FC5
:101270000ED0D0ED020A60EE800AC0ED020AD0ED79
:10128000030AF1EE600A60EE800AC0ED030A08303E
:10129000610808BFBDE8F081D0ED020A60EE800A67
:1012A000C0ED020AD0ED030AF1EE600A60EE800A9A
:1012B000C0ED030AD0ED040A60EE800AC0ED040A16
:1012C000D0ED050AF1EE600A60EE800AC0ED050A75
:1012D0001030491EE0D1BDE8F08100002DE9FF4F3C
:1012E0002DED108B82B09FEDFEFA0B461C46DB08FD
:1012F0004FF0000C0CEB030505EB030808EB0309AA
:1013000009EB030606EB030A00EBCC0700EBC6066D
:1013100097ED001AD6ED000A0AEB030B00EBC505AA
:1013200000EBCA0A31EE200A71EE601A95ED002A30
:10133000DAED000A0BEB030E00EBC80832EE201AC0
:1013400000EBCB0B32EE602AD8ED002ADBED000A71
:1013500000EBC90900EBCE0E99ED003A9EED004A74
:1013600072EEA03A72EEE02A73EE040A33EE443ACB
:1013700070EE636A70EE233A31EE600A71EE200A75
:1013800033EEA01A73EEE00A87ED001AC6ED000AEC
:1013900097ED011AD6ED010AD5ED013A98ED014A13
:1013A00031EE206A71EE600A9AED011A99ED015A48
:1013B00073EE814A73EEC13A9BED011A34EE017A65
:1013C00034EE411A9EED014A75EE045A35EE444A58
:1013D00036EE475A36EE076A34EEE57A74EEA54AE1
:1013E00076EE245A76EE644AC7ED015AC6ED014AFC
:1013F00076EE874AC8ED004A76EEC74ACBED004A42
:1014000075EE404A35EE000AC8ED014A8BED010A3F
:1014100032EE430A32EE032A20EE0F0A62EE0F4A42
:1014200033EEC42AA4448C4522EE0F3A33EE842ACC
:1014300030EEC34A62EE0F3A30EE833A31EEC02A04
:1014400031EE800A71EE630A31EE231A72EEE41A6D
:1014500072EEA42A70EE013A30EE410AC5ED003A70
:101460008EED000A32EE200A8AED000A32EE600AA2
:1014700089ED000A33EE620A85ED010A33EE220A95
:101480008EED010A34EE610A8AED010A34EE210A7A
:1014900089ED010AFFF42EAF082B3FBF02B0BDEC6F
:1014A000108B04B0BDE8F08F4FF0000CCDF804C0F5
:1014B0004FF0010CCDF800C0DDF804C0159DAC4420
:1014C0004FEA8C0505EB0C07CDF804C007EB0C09BF
:1014D0004FEA4C0808EB0C0609EB0C0A02EBCC0CAB
:1014E00002EBC80802EBC60602EBC50502EBC70714
:1014F00002EBC90902EBCA0A9CED00DA9CED018AF5
:10150000D8ED00CA96ED00CAD5ED00BA97ED00BA45
:10151000D9ED00AADAED008AD8ED017A96ED01AA9C
:1015200095ED017AD7ED016A99ED016ADAED019A3C
:10153000DDF800C00CEB0307FD1805EB030A0AEB0E
:10154000030808EB030606EB030B00EBCC0900EBEA
:10155000C808D9ED000A98ED000A00EBC70700EBB8
:10156000C606D7ED001A96ED001A70EE803A0BEB26
:10157000030E70EEC00A31EE810A00EBC50500EBE8
:10158000CB0B31EEC11AD5ED001A9BED002A00EB12
:10159000CA0A00EBCE0E31EE824A71EEC21A9AED03
:1015A000002ADEED002A32EE223A32EE622A73EE93
:1015B000C42A73EE843A30EE435A30EE030A33EE17
:1015C000803A73EEC0DA89ED003A99ED010A98EDA0
:1015D000013AD7ED013A95ED014A70EE03EA30EE9B
:1015E000433A96ED010A9AED01EADEED014A33EE47
:1015F000809A73EEC03A9BED010A74EE005A34EE05
:10160000404A3EEE240A7EEE644A3EEEE5EA7EEE75
:10161000A55A79EE40EA39EE009A32EEAE0A72EE41
:10162000EE2A75EE89EA35EEC99A7EEE455AC9ED85
:1016300001EA3EEE055A2BEEADEA67EE09EA2BEE23
:10164000899A67EE2DDA3EEE2EEA39EE6D9A88ED34
:1016500000EA67EEA5DA88ED019A2CEE809A6CEE2E
:10166000A55A27EE800A39EE2D9A35EEC00A85ED8F
:10167000009A66EE055A85ED010A2AEEA20A2AEEC4
:10168000855A66EE222A30EE250A8BED000A35EEE9
:10169000620A73EEA42A8BED010A31EE420A31EEA2
:1016A000021A33EEE42A62EE8F3A20EE0F0A21EEA0
:1016B0000F1A22EE0F2A70EEC02A30EE800A71EE69
:1016C000C10A71EE811A33EE421A33EE022A34EE69
:1016D000633A34EE234A70EE043A30EE444A01E0B5
:1016E000F304353F72EE834A72EEC32A32EE613A5A
:1016F00032EE210A71EE601A71EE200A2DEE232AD5
:1017000028EE031A2DEE033A68EE233AA44432EE93
:10171000011A28EE842A8C4587ED001A33EE631AED
:1017200029EE843A87ED011A29EE801A28EE800A04
:1017300032EE011A30EE430A26EEA42A8EED001A8C
:101740008EED010A2BEE240A26EEA11A6BEE211A69
:1017500030EE010A2CEE221A86ED000A31EEC20AA2
:101760006AEE221A86ED010A2AEE200A6CEE200AA1
:1017700031EE000A8AED000A30EEE10A8AED010A34
:10178000FFF4D8AEDDF800C00CF1010CCDF800C0BC
:1017900063453FF691AEDDF854C04FF6FF7404EA9E
:1017A000CC0CCDF854C0072B3FF6A0AD02B0BDEC79
:1017B000108B04B0BDE8F08F2DE9F05F05460020E6
:1017C00092469B4688460646814640241BE02846B2
:1017D00041464746224600F09AF853465A46C01AF8
:1017E000914110D311461846224600F081F82D1A77
:1017F00067EB01084F4622460120002100F078F8EF
:1018000017EB00094E41201EA4F10104DFDC48461D
:1018100031462A464346BDE8F09F10B5431A93422D
:1018200009D28318881803E010F8011D03F8011D80
:10183000521EF9D210BD40EA01039B0703D009E014
:1018400008C9121F08C0042AFAD203E011F8013BAC
:1018500000F8013B521EF9D210BDD2B201E000F8EF
:10186000012B491EFBD270470022F6E710B5134644
:101870000A4604461946FFF7F0FF204610BD421CF9
:1018800010F8011B0029FBD1801A7047034611F89C
:10189000012B00F8012B002AF9D11846704700F0FF
:1018A000004230F000400AD0C10D01F56071C0F374
:1018B000160042EA0151C208400711437047002058
:1018C0000146704730B50B46014600202022012416
:1018D00009E021FA02F59D4205D303FA02F5491BFE
:1018E00004FA02F52844151EA2F10102F1DC30BD14
:1018F000202A04DB203A00FA02F1002070479140D0
:10190000C2F1200320FA03F3194390407047202AC4
:1019100004DB203A21FA02F00021704721FA02F399
:10192000D040C2F1200291400843194670472DE98A
:10193000FE4F804681EA0300C00F0C46009021F064
:10194000004123F00045B8EB0200A94105D2404612
:10195000214690461C460B46024623F000401043A9
:1019600047D0270DC7F30A00C3F30A510290401A6B
:10197000019040286BDAC3F3130040F4801B0098F9
:10198000924620B10023D2EB030A63EB0B0B0198C4
:101990005946C0F140025046FFF7AAFF06460D46E1
:1019A00050465946019A00F08DF910EB080061414C
:1019B000002487EA115284EAE7731A4340D0009A60
:1019C00062B3019A012A4FEA075215DC001B61EB52
:1019D00002014FF0004202EA0752CDE90042001C2A
:1019E00041F5801132462B4600F08DF903B0BDE879
:1019F000F08F40462146F9E7001B61EB0201001C15
:101A000041F5801300185B412018A2F5001747EB41
:101A1000030140EAD570B6196D4111E06D084FEA37
:101A2000360645EAC0754FEA0752001B61EB02011A
:101A3000001C41F5801149084FEA3000001951415E
:101A400032462B4603B0BDE8F04F00F04DB9009888
:101A5000012240000023D0EB020263EBE073009808
:101A600021464FEAE074B8EB000061EB0401E9E7BE
:101A700083F000435BE781F0004158E72DE9FE4F1A
:101A800081EA030404F0004421F0004100944FF087
:101A9000000B23F0004350EA01045ED052EA030435
:101AA0005BD0C3F30A54C1F30A552C44A4F2F334B7
:101AB0000194A0FB0254C1F3130141F48011C3F35C
:101AC000130343F4801301FB024400FB034E840A1A
:101AD000970A44EA815447EA8357A4FB07680295B2
:101AE0008D0A05FB07854FEA932C04FB0C54270550
:101AF000029D4FEA065847EA1637B5EB08056EEB2C
:101B0000070C870E920E47EA811742EA8312A7FB61
:101B10000201B6EB0B0164EB00042B0D43EA0C331E
:101B20005E1844EB1C50DA465146E7FB0201C5F350
:101B300013044FEA0B3343EA14534FEA0432019C77
:101B400043EA0603A4F10C040294009CCDE900B41E
:101B500000F0D9F803B0BDE8F08F00200146F9E7A6
:101B60002DE9F04D81EA030404F0004B21F000451B
:101B700014464FF0000A23F0004150EA050220D03D
:101B800054EA01021DD0C5F30A570246C5F31303F8
:101B9000C1F31300C1F30A5640F4801543F48013D7
:101BA000A7EB0608101BD64608F2FD3873EB0500BC
:101BB00002D308F1010801E092185B41B8F1000F6F
:101BC00003DA00200146BDE8F08D00204FF48011BB
:101BD000064684460EE0171B73EB050705D3121B60
:101BE00063EB050306434CEA010C49084FEA300059
:101BF00092185B4150EA0107EDD152EA030012D07E
:101C000082EA040083EA0501084305D0101BAB41BA
:101C100006D20122002306E000224FF0004302E03A
:101C20006FF0010253101AEB06004CEB085110EB59
:101C30000A0041EB0B01BDE8F04D00F055B8C1F3CF
:101C40000A52C1F3130140F2FF3341F480119A426A
:101C500002DA00200146704740F233439A42A2F272
:101C6000334202DC5242FFF752BEFFF741BE000092
:101C700030B5041E71F1000404DB4FF00044404213
:101C800064EB0101141E73F1000405DB1C464FF0E8
:101C90000043524263EB0403994208BF904230BDB7
:101CA000064C074D06E0E06840F0010394E80700A9
:101CB00098471034AC42F6D3FEF7CAFA08BC0408C1
:101CC00028BC0408202A06DBCB17203A41FA02F090
:101CD00043EAE07306E041FA02F3D040C2F1200289
:101CE000914008431946704710B5141E73F1000463
:101CF00008DA401C41F1000192185B411A4301D1FE
:101D000020F0010010BD2DE9F04D92469B4611B127
:101D1000B1FA81F202E0B0FA80F220329046FFF789
:101D2000E7FD04460F4640EA0A0041EA0B0153462C
:101D30005A46084313D0114653EA010019D0C8F19E
:101D400040025046FFF7E3FD05460E465046594611
:101D50004246FFF7CDFD084305D0012004E02046B0
:101D60003946BDE8F08D0020054346EAE0762C4375
:101D700037430A986305E40AA0EB08000022FD0A35
:101D800044EA47540A3002D500200146E9E701053C
:101D900010196941DDE9084500196941BDE8F04DB8
:101DA000A2E770B58C1810F8015B15F0070301D19C
:101DB00010F8013B2A1106D110F8012B03E010F8AE
:101DC000016B01F8016B5B1EF9D12B0705D40023D1
:101DD000521E0DD401F8013BFAE710F8013BCB1A73
:101DE000921C03E013F8015B01F8015B521EF9D568
:101DF000A142D8D3002070BD21484FF0FF010170EF
:101E0000002080F309881F48016881F308881E4874
:101E10004FF08051016062B6FEE71B484FF08051E1
:101E20000160704718484FF080510160704772B6EA
:101E3000EFF3098050B11EF0100F08BF20ED108A9B
:101E4000734620E9F80F11490968086000B5104889
:101E500080475DF804EB0F480F490A7802700B4881
:101E60000E490A6802601068B0E8F80F9E461EF03E
:101E7000100F08BFB0EC108A80F3098862B6704773
:101E800022ED00E0E403002004ED00E0DC0300208C
:101E9000B53801087A0300207B030020E00300200E
:101EA0000A4600214168024B1940114341607047C6
:101EB000FFFD3FFF0A460021416821F01F01114349
:101EC0004160704741628262704721B1826842F08E
:101ED0000102826003E0826822F0010282607047A2
:101EE0000021084A1168084A1140D0E900231A432A
:101EF00083681A43C3681A431143044AC2F804139F
:101F00007047000004230140E030FCFF0020014046
:101F100021B1826842F48072826003E0826822F418
:101F200080728260704721B1826842F400728260E0
:101F300003E0826822F400728260704710B50021CD
:101F40000E4817F04CFC00210D4801F0F3FD002174
:101F50000B48183801F0EEFD00210948183001F057
:101F6000E9FD00210748FFF7B0FF00210648FFF711
:101F7000ACFF00210548FFF7A8FF10BD000001409D
:101F8000286402400020014000210140002201405D
:101F900000B58FB0574801F0D9FD4FF08060009038
:101FA0005548019055480290002003904FF420506E
:101FB0000490002005904FF4806006904000079048
:101FC0000890C010099040020A9000200B90012058
:101FD0000C9000200D900E906946464801F08AFE54
:101FE0000121444801F0A6FD4248183001F0AEFD41
:101FF0004FF000700090424801904248029000204B
:1020000003904FF420500490002005904FF480601E
:102010000690400007900890C010099040020A9076
:1020200000200B9001200C9000200D900E9069462E
:102030003048183001F05EFE01212E48183001F0C2
:1020400079FD2C48183801F081FD002000902E48C1
:1020500001902E480290002003904FF420500490ED
:10206000002005904FF48060069040000790089093
:10207000C010099040020A9000200B9001200C90A3
:1020800000200D900E9069461A48183801F032FE73
:1020900001211848183801F04DFD002301220A21C2
:1020A00015484C3800F0D0F8012113484C38FFF7A0
:1020B0000CFF002301220A2111484C3800F0C4F81B
:1020C00001210F484C38FFF700FF002301220A21AD
:1020D0000D484C3800F0B8F801210B484C38FFF798
:1020E000F4FE17F06FF90A48008808B118F004FBF5
:1020F0000FB000BD286402404C220140A4AD002076
:102100004C210140A45D00204C200140A40D002082
:1021100014020020254800682549088025480068E9
:1021200000F00100E8B308460088B0F5205F05D153
:102130002148B0F8FC0F2149088015E01C480088B0
:1021400042F2FF71884205D11B48B0F8FE0F1B49CF
:10215000088009E01648008842F2FE71081A184902
:1021600031F810001549088014480088154909887D
:10217000884210DC0F48001D006820F04000124922
:10218000C1F804020120114908801148008840F07C
:1021900001000F4908800748006800F0FE000A4966
:1021A00000E001E0C1F80002704700002C6402402A
:1021B0004A00002000220140A4ED00204C00002035
:1021C000A4AD0020380200200020014014020020AD
:1021D0000004014010B50B460021D9B2012404FAD5
:1021E00001F11AB144680C43446002E044688C4336
:1021F000446010BD30B50246002000235068104CEA
:1022000020400D790C6844EA052420435060906812
:102210000C4C2040D1E903542C438D682C434D795C
:1022200044EA450420439060D06A20F470000C7D9D
:10223000641EE4B2234340EA0350D06230BD000084
:10224000FFFEFFFCFDF7FFC0F0B504460D46002081
:102250000021092D11DDE068A5F10A0606EB46070D
:10226000072606FA07F18843A5F10A0606EB46069B
:1022700003FA06F10843E0600CE0206905EB45072E
:10228000072606FA07F1884305EB450603FA06F12F
:1022900008432061072A0FDA606B561E06EB86079B
:1022A0001F2606FA07F18843561E06EB860605FA36
:1022B00006F10843606322E00D2A0FDA206BD61F77
:1022C00006EB86071F2606FA07F18843D61F06EBA2
:1022D000860605FA06F10843206310E0E06AA2F1E1
:1022E0000D0606EB86071F2606FA07F18843A2F1C2
:1022F0000D0606EB860605FA06F10843E062F0BD1E
:1023000010B503A20021054800F083F910BD0000BC
:1023100053454D5F53594E43480000007C0B00204D
:1023200002E0024800F0A2F9FBE7000040420F0083
:1023300000B58BB00AA8032100220592CDE9062141
:1023400008904FF40060CC213C4B1B68CDE9013173
:10235000CDE9030203201346394A3AA100903D48D3
:10236000006810F0E5FE0AA8032100220592CDE9DD
:102370000621089011464FF480626620364B1B6898
:10238000CDE90130CDE9032104200023334A34A1F3
:1023900000903748006810F0CBFE0AA80321002205
:1023A0000592CDE90621089010464FF4806166221F
:1023B000304B1B68CDE90132CDE903100520002325
:1023C0002D4A2EA100903148006810F0B1FE0AA8F5
:1023D000032100220592CDE90621089001210A037C
:1023E00040F299102A4B1B68CDE90130CDE9032159
:1023F0003C200023274A28A100902B48006810F0B9
:1024000097FE0AA8032100220592CDE90621089033
:1024100010464FF480616622244B1B68CDE90132DF
:10242000CDE903103B200023214A22A10090264839
:10243000006810F07DFE0BB000BD00000C00002015
:10244000E5240008417070205461736B205570645E
:10245000617465000800002014000020212300089A
:10246000417070205461736B20434F4D0000000099
:10247000100000201C000020F5250008417070208D
:102480005461736B20557365724946001800002033
:1024900024000020CD240008417070205461736B2B
:1024A0002047554900000000200000202C0000209B
:1024B000D5240008417070205461736B2047554942
:1024C00052656672657368002800002001E010F014
:1024D000ABF8FCE705E0C82000F0C8F8022024F0C3
:1024E000DFFBF8E786B0002528E00021144800F063
:1024F000A1F80446012C21D12A4612A1684621F0F8
:1025000045F805A810F004FB13A025F045FA15497D
:1025100008700A226946144825F01CFB114908700E
:102520001149124807F0C4F90F4825F025FA0D4962
:10253000087005A810F024FB681CC5B2D5E70000A0
:102540007C0B0020303A2F506963536176652F254C
:10255000642E626D70000000303A2F506963536141
:1025600076650000B00200200CB101202934020879
:1025700008B500240026002500F0F0FF23F018FF26
:1025800000F096F8684610F051FDFFF7B9FEFFF72E
:10259000CFFE28E0144890F82800012802D117F057
:1025A0007DFE16E011480078012807D1701CC6B2E4
:1025B0000A2E0ED1002606F05DFB0AE00C4840789A
:1025C000012806D1681CC5B20A2D02D1002505F0EC
:1025D000ADFB601CC4B20A2C02D1002424F034FBF1
:1025E000012000F043F8D5E7CC050120E8060120E2
:1025F0000A07012002E0024800F038F8FBE700007B
:1026000040420F001FB5684614F044FD019804B025
:1026100010BDF8B506460C4615466B4622462946BF
:10262000304610F0F5FABDF8000008B10020F8BD02
:102630000120FCE77CB505460C464FF47A706043F8
:1026400009490968B0FBF1F601A800231A46314692
:102650000090284610F01CFBBDF8040008B10020D3
:102660007CBD0120FCE70000DCE10208FEB5044669
:1026700042F21070844200D90446B4F57A7F0BD33D
:102680004FF47A70B4FBF0F085B24FF47A70B4FB7B
:10269000F0F100FB114601E0A5B2002602A80021DE
:1026A0002B463246CDE90010084611F097F9FEBDE1
:1026B0002DE9F041FFF7A6FF054614480068B5FB79
:1026C000F0F42146481EB0F1807F00D31BE0481E85
:1026D0004FF0E022506150170F22002807DA13074D
:1026E0001F0E0B4B00F00F06361F9F5503E013071C
:1026F0001E0E084B1E5400BF00204FF0E0229061D8
:102700000720106100BFBDE8F0810000DCE1020895
:1027100018ED00E000E400E010B504462146512029
:1027200014F0C2F910BD2DE9F04105460C461646DD
:102730001F46DDF81880E9B2582014F0B5F92912C7
:10274000592014F0B1F9E1B25A2014F0ADF9B8F102
:10275000000F04D121125B2014F0A6F905E08020BF
:1027600040EA24215B2014F09FF9F9B25C2014F0B8
:102770009BF939125D2014F097F9F1B25E2014F044
:1027800093F931125F2014F08FF9BDE8F081000059
:1027900010B5012004490870502014F015F980206C
:1027A00014F034F910BD00008000002010B50024A2
:1027B00006E013F05DFF00F0400000B903E0641C88
:1027C00003488442F5D300BF00200249087010BDC1
:1027D000A08601008000002038B544680546014607
:1027E000204618F0ACF9002808BF38BD464A2868D2
:1027F00011280DD006DC0B282AD00E2838D00F283F
:1028000017D07CE0282873D0B0F5107F0AD076E08E
:102810009268002A08BF38BD294601B02046BDE8AD
:1028200030401047526801B029462046BDE830408C
:1028300010472546204606F05FFE0090406E046873
:10284000684606F0F1FE002C1CBF2846A04738BDA4
:10285000204606F051FE0090683006F04FFD0098CB
:1028600003216C3006F078FD684606F0DDFE46E098
:10287000E968486809680D2902D0202918D037E096
:10288000002835DD4FF48071204618F023FA2046E9
:1028900006F032FE009090F82850684606F0C4FE1C
:1028A00015F0020F1ED00121204619F09CFD19E001
:1028B000002817DD25464FF48071204618F00AFAEB
:1028C000284606F019FE009090F82840684606F069
:1028D000ABFE14F0020F08BF38BD0121284619F0E5
:1028E00082FD38BD2046BDE8384002211EF0B0BF51
:1028F000E86820B920464FF4807118F005F92846A1
:10290000BDE8384018F0C2BC6004002030B585B086
:102910004FF0000CDDE90845CDE900C5CDE902C462
:1029200000F00EF805B030BD70B584B00026DDE9CA
:10293000084C0A9D8DE8701000F002F804B070BDDC
:102940002DE9F04786B00646DDE90E598846174660
:102950009A46119C08F030FD4C201749CDE9021031
:10296000CDE9005953463A464146304618F0D2FB6D
:1029700005001BD006F0C0FD10222146049018F07F
:102980000BFA0E4C0499B4E8CD133431A1E8CD1301
:1029900094E80D10A1E80D1054F82C0D086004A85F
:1029A00006F042FE20684168284688470AF0C2FDCA
:1029B00006B02846BDE8F087D92700086C0400203F
:1029C000F0B5044680688C4989B051F820506068A1
:1029D000002800F00A81052806D006287DD012289C
:1029E00000F0B48000F004B9E869002808BF0026B0
:1029F00051D0D5E90012AB688DE80F0004F1100149
:102A00000FC90BF07BFB002655F826000AF02BFAC5
:102A1000A169E8690A1A216901446069304407F034
:102A200055FFA169E8690A1A21690144E069801B20
:102A300007F04CFFE169E8690A1A616901442069FD
:102A4000304408F043F9E169E8690A1A6169014410
:102A5000A069801B08F03AF9761C022ED4DBA86826
:102A60000AF001FAE069E969D4F814C0431A206950
:102A700042186144801C521E08F012FAE169E869AC
:102A8000A2690B1A61690144101A401C921E08F0D9
:102A900007FAEE6911E055F826000AF0E4F9E0695A
:102AA000831BA069821B606981192069304407F08B
:102AB000F5FF761C022EEEDB0226D5E90301CDE9F7
:102AC0000001E169606901444B10A1698A1B811C06
:102AD0002069304407F0F0FD00E011E0D5E9050180
:102AE000CDE90001E0696169831E01440122A0690A
:102AF00002EB6101821B2069304407F0DDFD77E0C5
:102B0000206806F0F9FC049020681AF029FD50B105
:102B1000A068002818BF00200AD10498006F002880
:102B200018BF012004E00498406F002818BF02205D
:102B3000049901EB8000C56E04A806F075FD002322
:102B40001A462846216807F07BF951E0206806F014
:102B5000D3FC0490866E002E08BF04A842D0A16862
:102B6000B0F95C70002908BF012103D003290CBF14
:102B70000221002100EB8101406D0C6C0AF08AF902
:102B800020460AF070F906A808F0CCFABDF8181033
:102B9000A88B0144ADF81810BDF81C10081AADF848
:102BA0001C00BDF81A00801CADF81A00BDF81E000C
:102BB000801EADF81E000498B0F96020B0F95E10D8
:102BC00006A809F047FD04A806F02EFD02200AF031
:102BD000CDF9304606F090FC3A4606A9059007F07C
:102BE0004FFA05A806F020FD02E0206819F028FF42
:102BF00009B00020F0BD0000B85C0308044A034996
:102C0000116004494A6A4862104670479C040020DB
:102C1000600400206C04002000294FF0100101D056
:102C200018F058B817F070BF002808BF704738B5C3
:102C30000C46054608F0C0FB284606F05DFC0090F7
:102C40004465684606F0F0FC284619F019FB0AF0C6
:102C500071FC38BD70B505460C46104600210A4689
:102C600007F0D0F8024621462846BDE8704000F043
:102C70002CB8F0B583B00F4605004FF0010421D009
:102C800008F09AFB284606F037FC0190866E01A8F2
:102C9000009606F0C9FC394668460CF057F878B142
:102CA00000980024B04208D0284606F025FC019088
:102CB0000099816601A806F0B7FC284619F0E0FAF1
:102CC0000AF038FC03B02046F0BD002808BF70476A
:102CD000F8B515460C46064608F06EFB304606F081
:102CE0000BFC0090032C0BD200EB84006C3006F040
:102CF00005FB009800EB8400C566304619F0C0FA69
:102D0000684606F091FC0AF015FCF8BD00BFFEE72E
:102D10002DE9F84F446805460146204617F00FFF9D
:102D2000002808BFBDE8F88F28680B2873D00E284C
:102D300005D00F2823D0B0F5107F30D075E02046A5
:102D400006F0DAFB009090F8746090F875706846B1
:102D500006F06AFC20461AF003FC002865D0E868FB
:102D60004168002961DD006820285ED1781CB0FB35
:102D7000F6F106FB1101204600F027FB55E0254641
:102D8000204606F0B9FB0090006F0468684606F024
:102D90004BFC002C1CBF2846A047BDE8F88F2646F8
:102DA0000027204606F0A8FB009090F8749090F859
:102DB0007580B0F930A0684606F036FCEC6824B3A4
:102DC000304619F02DF920B13946304619F00BFB89
:102DD0002BE0207A88B10121304619F0C5FC08F1BA
:102DE0000100B0FBF9F109FB1101304600F0EDFAEA
:102DF0000121304619F0F7FA17E00221304619F0A8
:102E0000F2FA50460AF0CAF80FE00321304619F0F2
:102E1000EAFA0AE0FFE7204606F06EFB0090783001
:102E200006F06CFA684606F0FFFB2846BDE8F84F4E
:102E300018F02CBA70B586B0B0F90840458AD0F8C1
:102E400018C00026CDE90254CDE90016CDF810C017
:102E5000B0F90C10B0F91040B0F90EC0B0F90A008A
:102E6000194410442346624600F002F806B070BDD3
:102E70002DE9FF4F85B01D46DDE912A7DDE9158973
:102E800016468B4608F098FA264C0EB135B10AE08A
:102E90002068806800688047064625B920688068F9
:102EA00000688047054620486FF07041C06888423E
:102EB00008BF47F0010709F154011C48CDE900A7FC
:102EC000CDE902012B4632465946059818F022F901
:102ED000050021D006F010FB10224146049017F0A7
:102EE0005BFF241D0499B4E8CD133431A1E8CD1360
:102EF00094E8CD11A1E8CD1154F8240D41F87009E2
:102F0000022081F874000F20C86704A806F08CFB2B
:102F100020684168284688470AF00CFB09B028461B
:102F2000BDE8F08FC0090020C4090020112D000861
:102F30002DE9F04F0446006889B028B11AF010FB63
:102F4000002808BF012500D00025FE4850F8256064
:102F500060680A2800F0718108DC002800F0DC813C
:102F600006283ED007280CD000F0E7B9122800F060
:102F70002F81192802BFB06909B0BDE8F08F00F0B9
:102F8000DCB9256808F018FA284606F0B5FA009072
:102F9000C76F684606F048FB0AF0CCFA5FF0000500
:102FA00056F8250009F05FFF2069C119491B4B1E27
:102FB00061691A462944284407F070FD6D1C032DF1
:102FC000EED3D6E90301CDE900012069C119491BFF
:102FD0004B1E61691A462944284407F06DFB00F036
:102FE000ACB9A068401E0690246808F0E5F92046B8
:102FF00006F082FA0090C46F684606F015FB0AF0EE
:1030000099FADFF8449359F82570002F1CBF0698F1
:1030100000EB80000DD000BFB7F84810A14205D1E9
:1030200007EB8001896809B11FB1C7E0FF6C002F71
:10303000F2D1502006F0CEF907006AD050220021CC
:103040000BF012FF70697864A7F8484059F8250022
:10305000F864A4F10608BD4849F8257080FB081003
:103060004110A1EBE070032108910122CDF8088006
:1030700007F14001CDE90312069D05EB850107EB41
:103080008101019105EB450107EB81012831009198
:1030900008EBD8714A10491001EBD173A1EB630121
:1030A0000E18101A059008F10700C11700EB5170B7
:1030B0004FEAE00A0AFB08F4204606F08BF9814645
:1030C000224600210BF0D0FEDDE9042001282BDD93
:1030D0000899012034463144A14220DDD31702EB88
:1030E000537E02F0070C802323FA0CF3444509DADF
:1030F0000AFB04FC0CEBEE0C19F80CB04BEA030BCA
:1031000009F80CB06840641CA14208DD0028F9D021
:10311000ECE750218E4807F021FE00F00EB905982B
:10312000521C761C9042D3DC04990298401A0490F9
:10313000904226DD089B01213046334483421BDD4B
:103140004FEAE27C02EB5C7E02F0070C802424FA5A
:103150000CFC404509DA0AFB00F404EBEE0419F814
:1031600004B04BEA0C0B09F804B06940401C8342E0
:1031700002DD0029F9D0ECE70498521C761E90423B
:10318000D8DC009802210160009901200871009AA2
:10319000039991600199C88001980021A0F804A0CA
:1031A0000198C0F8089001980161DDE90001C8604C
:1031B000DDE9010101800198A0F802800698032250
:1031C00000EB800007EB8000114607F0ADF8B4E09B
:1031D000206806F091F90290B0F9548090F856609A
:1031E000D0F84490476B02A806F01EFA256808F054
:1031F000E3F8284606F080F90390B0F87C5003A865
:1032000006F012FA0AF096F9684618F02DFBBDF8A0
:103210000000A9190844ADF80000246A384609F0F6
:1032200039FE022009F0A2FE484609F01CFE424683
:103230006946204606F024FF7FE0206806F05CF92E
:103240000290B0F9545090F85680476B866C02A8F3
:1032500006F0EAF9D4F8009008F0AEF8484606F017
:103260004BF90390B0F87C9003A806F0DDF90AF062
:1032700061F9684618F0F8FABDF8000009EB08019A
:103280000844ADF80000206A07F0C6FF044638463F
:1032900007F0ECFF25F00301042904BFBDF8061078
:1032A000091A08D00C2908D1BDF90610091A491CC1
:1032B00001EBD1714910ADF8021025F00C01012984
:1032C0000CD0022913D1BDF90420BDF90010521A07
:1032D000121B02EBD27201EB620106E0BDF8042082
:1032E000BDF80010521A121B1144ADF80010BDF8C1
:1032F0000010621E1144ADF80410BDF80210401E0B
:103300000844ADF80600304609F0ADFD4FF0FF313E
:10331000684607F083F810E0206819F091FB2068F8
:1033200006F0EAF80790B0F90610B0F90220891A01
:10333000491CC16707A806F077F909B00020BDE86D
:10334000F08F0000C85C03086C05002067666666A5
:10335000B0BB040838B505004FF000040CD008F0ED
:103360002BF8284606F0C8F8009090F8754068469B
:1033700006F05AF90AF0DEF8204638BD044A03493F
:1033800011600449CA69C8611046704728050020C9
:10339000C0090020C4090020002808BF704738B5C4
:1033A0000C46054608F008F8284606F0A5F80090F7
:1033B000416BA14203D04463284618F061FF684680
:1033C00006F032F90AF0B6F838BD002808BF704799
:1033D00038B50C46054607F0EFFF284606F08CF896
:1033E000009090F87410A1420CD980F8754068469E
:1033F00006F01AF9284618F043FF0521284618F070
:10340000F2FF02E0684606F00FF90AF093F838BDC3
:10341000002814BF0029704770B582B00D460446DD
:1034200007F0CAFF204606F067F80190866F01A8F2
:10343000009606F0F9F8294668460BF087FC70B153
:103440000098B04208D0204606F056F80190009946
:10345000816701A806F0E8F8204618F011FF0AF08D
:1034600069F802B070BD002808BF704738B50C4637
:10347000054607F0A1FF284606F03EF80090416C93
:10348000A14203D04464284618F0FAFE684606F0CC
:10349000CBF80AF04FF838BD00B589B00020009095
:1034A00002900390049005900690079008901920D0
:1034B000019004480068806841686846884709B000
:1034C00000BD0000C009002070B5234C054682B045
:1034D0002068418CB0F84C2011444184818CB0F8B4
:1034E000502011448184284607F0F6FD2168498C5C
:1034F000ADF80010461828460BF09EFA3044401EE6
:10350000ADF8040007F054FE2168898CADF8021074
:103510000844401EADF80600684619F057FE30B169
:10352000284604F0FBFD19F07BFC0028F8D10A2D99
:1035300004D0BDF804002168401C48842068418CF8
:10354000B0F84C20891A4184818CB0F85020891A37
:10355000818402B070BD00000004002010B500F0AE
:103560001FF800F019F810BD10B5002400BF00BF0F
:10357000FCF78AFE044600BF00BF102105480FF08B
:103580009DF800BF00BF2046FCF782FE00BF00BFD1
:1035900010BD0000F0DB012010B5FFF7E5FF10BD06
:1035A00010B500200249086000F00AF810BD0000C4
:1035B000080300200149086070470000080300204C
:1035C00010B5FFF71FF804460848006840F0807007
:1035D000064908600020064948600846006840F037
:1035E000010008602046FFF7E5FF10BDFCED00E09C
:1035F000001000E00149486870470000001000E03A
:1036000070B50446049D581A2E1B7043161B90FB80
:10361000F6F0084470BD70B500254FF4803400E02A
:10362000641E24B1802013F0ABFF0028F8D014B939
:103630000325284670BD40F2FF5013F05DFF284679
:10364000F8E700002DE9F0410646002748480568E4
:1036500001E04748056805F045000028F9D005F06D
:10366000040030B10327042013F046FF3846BDE8BC
:10367000F08105F0010028B10127012013F03CFF83
:103680003846F4E713F076FFB04202D010273846F0
:10369000EDE740F2FF5013F02FFF002013F090FFF2
:1036A00004463448204008B93846E0E704F00040BA
:1036B00008B11C20DBE704F0804008B10920D6E700
:1036C00004F0005008B10A20D1E704F0805008B19E
:1036D0000B20CCE704F0006008B10C20C7E704F031
:1036E000806008B10D20C2E704F0807008B10E20A0
:1036F000BDE704F4000008B10F20B8E704F480002F
:1037000008B11020B3E704F4001008B11120AEE7AF
:1037100004F4801008B11220A9E704F4002008B1D5
:103720001320A4E704F4802008B114209FE704F4D8
:10373000003008B115209AE704F4803008B1162053
:1037400095E704F4004008B1172090E704F48040A6
:1037500008B118208BE704F4005008B1192086E75F
:1037600004F0080008B11A2081E738467FE700001E
:10377000342C014008E0FFFD70B5002510480468B6
:1037800001E00F48046804F045000028F9D004F077
:10379000040028B10325042013F0AEFE284670BDB6
:1037A00004F0010028B10125012013F0A5FE2846F0
:1037B000F5E740F2FF5013F09FFE2846EFE70000C8
:1037C000342C014070B500250B48046801E00A481C
:1037D000046804F045000028F9D004F0040028B182
:1037E0000325042013F088FE284670BD40F2FF50E8
:1037F00013F082FE2846F8E7342C01402DE9F04111
:1038000006460F464FF000082248056801E02148AF
:10381000056805F045000028F9D005F0040038B12E
:103820004FF00308042013F067FE4046BDE8F08126
:1038300005F0010030B14FF00108012013F05CFEEB
:103840004046F3E713F096FEB04203D04FF0100865
:103850004046EBE740F2FF5013F04EFE002013F01D
:10386000AFFE044604F4604018B9200C388040468E
:10387000DCE704F4005008B11320D7E704F48040DB
:1038800008B11020D2E704F4004008B10F20CDE7C2
:103890004046CBE7342C014070B500264FF480350C
:1038A0000F48046802E06D1E0D48046804F04500EE
:1038B00008B9002DF7D115B104F0040028B1032692
:1038C000042013F019FE304670BD04F0400028B10A
:1038D0000026402013F010FE3046F5E73046F3E7AF
:1038E000342C0140014609B90B487047012901D128
:1038F0000020FAE7022901D10020F6E7032901D1CF
:103900000020F2E7042901D10020EEE7052901D1CA
:103910000020EAE70020E8E7A4FD002008B5252004
:103920008DF8000002208DF8010000208DF80200C3
:1039300001208DF8030068460EF0FCFE08BD000073
:103940001CB5002000900346044A0321019004485E
:1039500006F096F8044620461CBD00001937020800
:10396000F0B902081CB5002000900346044A032168
:103970000190044806F084F8044620461CBD00006F
:10398000DD37020844BA02081CB500200090034647
:10399000044A09210190044806F072F804462046C2
:1039A0001CBD0000A138020898BA020800B593B007
:1039B0000121480713F02EFB0121480513F00AFBF3
:1039C00004200F90002010901190022012900FA957
:1039D000002000F077F8194800F0B8F84FF0606068
:1039E0000090174801901748029040200490400131
:1039F0000790089040200390002005904FF48060CD
:103A000006908010099040020A9000200B9001203F
:103A10000C9000200D900E906946084800F06AF95D
:103A20000121064800F086F80121002000F00CF882
:103A30000121002000F01CF813B000BD8860024096
:103A400008740040240D002039B1084A126801238F
:103A500083401A43054B1A6006E0044A12680123AA
:103A600083409A43014B1A60704700000074004085
:103A700041B1094A12684FF4805383401A43064B00
:103A80001A6007E0044A12684FF4805383409A4357
:103A9000014B1A6070470000007400401CB5012102
:103AA000084613F097FA1020009003208DF80400C8
:103AB00000208DF807006946014805F04FF81CBD4D
:103AC0000000024030B5002200230A4C226840F674
:103AD000FE748440A243D1E900452C438D682C43F9
:103AE000CD6844EA050303FA00F42243014C226046
:103AF00030BD00000074004010B514F07DFA10BD18
:103B00000246094B9A4201D2084801E006481038A3
:103B100001F000531BB1064B0B40C36002E0044BA5
:103B20000B40836070470000106402400060024058
:103B30007D0F7D0F21B1026842F00102026003E0B7
:103B4000026822F00102026070470000016821F063
:103B5000010101600021016041608160C16001617B
:103B6000212141614A49884204D13D21484A103A05
:103B700091608CE046491831884205D14FF4746158
:103B8000434A103A916082E041493031884205D180
:103B90004FF474113E4A103A916078E03C49483144
:103BA000884205D14FF07461394A103A91606EE055
:103BB00037496031884204D13649354A103AD160DC
:103BC00065E033497831884204D13349304A103AAC
:103BD000D1605CE02E499031884204D12F492C4AB3
:103BE000103AD16053E02A49A831884205D14FF0FC
:103BF0003D51274A103AD16049E02949884204D111
:103C00003D21274A083A116041E025491831884290
:103C100005D14FF47461224A083A116037E0204917
:103C20003031884205D14FF474111D4A083A1160B1
:103C30002DE01B494831884205D14FF07461184A84
:103C4000083A116023E016496031884204D11149D5
:103C5000134A121F11601AE011497831884204D1C9
:103C60000D490F4A121F116011E00D499031884231
:103C700004D10A490A4A121F116008E00849A83114
:103C8000884204D14FF03D51054A121F1160704720
:103C9000106002403D000020400F002000003D2049
:103CA0001064024021B1026842F02002026003E089
:103CB000026822F020020260704710B501F0800314
:103CC0004BB122B1436943F08003436103E0436990
:103CD00023F08003436180290BD02AB1036801F0EF
:103CE0001E042343036004E0036801F01E04A343A1
:103CF000036010BD10B500220268134B1A40CC6857
:103D00000B6823434C6923438C692343CC692343C9
:103D10000C6A23434C6A23438C6A23434C6B234332
:103D20008C6B23431A430260426922F00702D1E9F7
:103D30000B3423431A4342610B6943604B68836031
:103D40008B68C36010BD00003F801CF02DE9F0417E
:103D5000044688B0006805F0CFFB0690468ED0F888
:103D6000885006A805F060FC002D18BF012506F05C
:103D70000106206819F0F4FB002D18BF00200FD0B9
:103D80007D4951F820506068002800F0EE8002283C
:103D900000F0CE8005280CD012287DD000F0E8B8C5
:103DA000002E18BF0120EBD1002814BF02200320F1
:103DB000E6E7D5E90123A86A29688DE80F0004F138
:103DC00010000FC80AF09AF95FF0000655F82600B7
:103DD00009F049F8A169A86A0A1A216901446069D1
:103DE000304406F073FDA169A86A0A1A21690144EA
:103DF000E069801B06F06AFDE169A86A0A1A616938
:103E000001442069304406F061FFE169A86A0A1A9A
:103E100061690144A069801B06F058FF761C022EE0
:103E2000D4DBA86A02281BDDA86809F01CF8E16948
:103E3000A86AD4F810C00B1A0CEB00014A1E616985
:103E400001440CF1020007F02BF8E169A86AA269AD
:103E50000B1A61690144101A401C921E07F020F8E9
:103E6000D5E90301CDE90001E1696069A269014476
:103E70004B10A96AD4F810C0521A8C44811C6046B9
:103E800006F01AFCD5E90501CDE90001A069AB6A8D
:103E90006169C21AE06900E019E001444FF0010CC9
:103EA0000CEB6101D4F810C09C44831E604606F000
:103EB00003FC686A08F0D7FFE2696169A369501AD8
:103EC000181A401C091D121F06F000FF50E0206860
:103ED00005F012FB0090B0F88060B0F98280C76CEA
:103EE000684605F0A1FB208AB11C0844ADF8080023
:103EF000A08A801CADF80A00A08BA18A401A218BF1
:103F0000891B081AC01EADF80C00A08B801EADF8EE
:103F10000E00022009F02AF8384608F0BBFF286A94
:103F200008F0A1FF424602A9206A06F0A9F81FE0A6
:103F30006169E0694FF0FF32401AA0F1080102EB1D
:103F40006106411CA269801B4410A2EB6107E8696D
:103F500008F089FF002E0BDBBA19B91B204606F0CA
:103F6000B5FC641C761EF7D502E0206818F068FDE9
:103F700008B00020BDE8F081D05C0308044A034982
:103F8000116004490A6B08631046704774050020ED
:103F9000000A0020040A002038B50D46002405F070
:103FA000ABFA0090C06B294605F0E1FB0546684678
:103FB00005F03AFB1DB1284605F09EFA044620465E
:103FC00038BD00007CB517F095FC05460020009038
:103FD0002B46044A02210190034805F051FD044696
:103FE00020467CBD7549020888B702087CB517F0E9
:103FF00081FC0546002000902B46044A02210190D6
:10400000034805F03DFD044620467CBD19540208D6
:1040100080B902087CB517F06DFC054600200090C1
:104020002B46044A02210190034805F029FD04466D
:1040300020467CBDD148020850B702087CB517F075
:1040400059FC0546002000902B46044A08210190A7
:10405000034805F015FD044620467CBDB54A02081C
:10406000F8B702087CB517F045FC05460020009023
:104070002B46044A1F210190034805F001FD044628
:1040800020467CBDC93A0208ECB302087CB517F0A3
:1040900031FC0546002000902B46044A0221019085
:1040A000034805F0EDFC044620467CBDB5540208EB
:1040B000B8B902087CB517F01DFC05460020009039
:1040C0002B46044A06210190034805F0D9FC04461A
:1040D00020467CBD954F0208D8B802087CB517F081
:1040E00009FC0546002000902B46044A022101905D
:1040F000034805F0C5FC044620467CBD154A02086D
:10410000C0B7020870B5002008F0A2FE40F2B71355
:1041100040F27F222821084605F07CFC6FF07F40AA
:1041200008F0A1FE002514E000240EE005EBC50216
:1041300002EB0512282303EB420104EB840203EB9C
:10414000420006F045FC601C84B23D2CEEDB681C8E
:1041500085B2092DE8DB00240AE004EB8401282263
:1041600002EB410040F2B71106F032FC601C84B251
:104170003D2CF2DB002414E000250EE005EB850267
:10418000282303EB420104EBC40202EB041203EB0D
:10419000420006F01DFC681C85B2292DEEDB601C78
:1041A00084B20C2CE8DB00250AE005EB8500282210
:1041B00002EB400140F27F2006F0E2FB681C85B272
:1041C000292DF2DB4FF4DB7140F27E2006F0D8FBA4
:1041D000002513E005EB8500282202EB400140F2A8
:1041E000531006F0CDFB05EB8500282202EB4001C1
:1041F00040F2551006F0C4FB681C85B2292DE9DB9E
:1042000040F2B71140F2531006F0BAFB40F2B7117A
:1042100040F2551006F0B4FB002411E004EB8401D9
:10422000282202EB4100EF2106F0AAFB04EB8401F7
:10423000282202EB4100F12106F0A2FB601C84B2AF
:104240003D2CEBDBEF2140F27F2006F099FBF121C2
:1042500040F27F2006F094FB70BD000000B52DED0C
:10426000028B91B044F2F00008F0FDFD40F27F2295
:104270002821FC48B0F9000006F028FB40F27F221C
:104280002821F848B0F90000401C06F01FFB03206D
:104290000090F448B0F9003012333D22B0F900101C
:1042A000C91C322006F032FE40F27F222821EE485F
:1042B000B0F9000006F00AFBEB49B1F90010481E06
:1042C00040F27F22282106F001FB03200090E648FF
:1042D000B0F90000C31EE448B0F90000A0F11201DB
:1042E0003D22322006F012FE002008F0BCFDDF481F
:1042F00008F0D0FD022008F039FEDA48B0F90020BD
:104300003321612005F00EFED7480088133802B231
:104310003321622005F006FE002008F0A4FD0420F1
:10432000872340F27B22372100904FF4FA7006F089
:10433000EDFD6FF07F4008F096FD042088234FF4D8
:104340001F723621009040F2F31006F0EFFB44F2AA
:10435000F00008F088FD03204D2340F207223E21A3
:1043600000904FF4FE7006F0D1FD0320692340F267
:1043700007225A2100904FF4FE7006F0C7FD00207E
:1043800008F071FDBA4808F085FD022008F0EEFD46
:104390003B2240F2FD11612005F0C4FD582240F29D
:1043A000FD11622005F0BEFD4FF6FF7008F05BFDC9
:1043B000B04808F06FFD732240F2FF11232005F092
:1043C000B1FDAD48B0F90000A0F5AA70AB49AC4A08
:1043D00092F9002031F82210484300EE100AB8EE9E
:1043E000C00ADFEDA80A80EE201AA74880ED001A67
:1043F000A248A34991F9001000EB810040880128F0
:104400000CD1A1480068FDF74AFA41EC180B53ECB7
:10441000182B9EA102A81FF0B9F882E0974898498E
:1044200091F9001000EB8100408802280CD19648D9
:104430000068FDF734FA41EC180B53EC182B95A1EA
:1044400002A81FF0A3F86CE08C488D4991F9001088
:1044500000EB8100408803280CD18B480068FDF7F1
:104460001EFA41EC180B53EC182B8CA102A81FF07C
:104470008DF856E08148824991F9001000EB8100E7
:10448000408804280CD180480068FDF708FA41EC08
:10449000180B53EC182B83A102A81FF077F840E00B
:1044A0007648774991F9001000EB81004088052893
:1044B0000CD175480068FDF7F2F941EC180B53EC8C
:1044C000182B7AA102A81FF061F82AE06B486C490A
:1044D00091F9001000EB8100408806280CD16A4851
:1044E0000068FDF7DCF941EC180B53EC182B71A1B7
:1044F00002A81FF04BF814E06048614991F90010E0
:1045000000EB8100408807280BD15F480068FDF769
:10451000C6F941EC180B53EC182B68A102A81FF048
:1045200035F83F2240F20B2102A805F095FD6548C1
:10453000B0F90000A0F5AA705049514A92F9002044
:1045400031F82210484300EE100AB8EEC00ADFED41
:104550004D0A80EE201A5C4880ED001A4748484911
:1045600091F9001000EB8100408801280CD15648D9
:104570000068FDF794F941EC180B53EC182B43A19C
:1045800002A81FF003F8B7E03C483D4991F900103C
:1045900000EB8100408802280CD14B480068FDF7F1
:1045A0007EF941EC180B53EC182B3AA102A81EF02F
:1045B000EDFFA1E03148324991F9001000EB810094
:1045C000408803280CD140480068FDF768F941ECA9
:1045D000180B53EC182B31A102A81EF0D7FF8BE06B
:1045E0002648274991F9001000EB810040880428F3
:1045F0000CD135480068FDF752F941EC180B53EC2B
:10460000182B28A102A81EF0C1FF75E01B481C4909
:1046100091F9001000EB8100408805280CD12A4850
:104620000068FDF73CF941EC180B53EC182B1FA167
:1046300002A81EF0ABFF5FE01048114991F900108D
:1046400000EB81004088062840D11F480068FDF734
:1046500026F941EC180B53EC182B16A102A81EF0FA
:1046600095FF49E04602002048020020202603086A
:10467000501603083CFB0208420200205CB302080B
:104680002702002000007A444C02002025352E31FC
:104690006675730025352E33666D730025352E3211
:1046A000666D730025352E31666D730025352E330A
:1046B0006673000025352E326673000025352E31D5
:1046C000667300004402002050020020BB48BC4931
:1046D00091F9001000EB8100408807280CD1B948FF
:1046E0000068FDF7DCF841EC180B53EC182BAFF227
:1046F000340102A81EF04AFF5B2240F20B2102A8FF
:1047000005F0AAFCAD48AE4991F9001000EB81001C
:104710004088012816D1AB4890ED000AAA48D0ED98
:10472000000A30EE600A10EE101A0846FDF7B7F8DE
:1047300041EC180B53EC182BAFF2B00102A81EF09D
:1047400025FFBEE09D489E4991F9001000EB8100D5
:104750004088022816D19B4890ED000A9A48D0ED77
:10476000000A30EE600A10EE101A0846FDF797F8BE
:1047700041EC180B53EC182BAFF2E80102A81EF025
:1047800005FF9EE08D488E4991F9001000EB8100F5
:104790004088032816D18B4890ED000A8A48D0ED56
:1047A000000A30EE600A10EE101A0846FDF777F89E
:1047B00041EC180B53EC182BAFF2201102A81EF09D
:1047C000E5FE7EE07D487E4991F9001000EB810016
:1047D0004088042816D17B4890ED000A7A48D0ED35
:1047E000000A30EE600A10EE101A0846FDF757F87E
:1047F00041EC180B53EC182BAFF2581102A81EF025
:10480000C5FE5EE06D486E4991F9001000EB810035
:104810004088052816D16B4890ED000A6A48D0ED13
:10482000000A30EE600A10EE101A0846FDF737F85D
:1048300041EC180B53EC182BAFF2901102A81EF0AC
:10484000A5FE3EE05D485E4991F9001000EB810055
:104850004088062816D15B4890ED000A5A48D0EDF2
:10486000000A30EE600A10EE101A0846FDF717F83D
:1048700041EC180B53EC182BAFF2C81102A81EF034
:1048800085FE1EE04D484E4991F9001000EB810075
:104890004088072815D14B4890ED000A4A48D0EDD2
:1048A000000A30EE600A10EE101A0846FCF7F7FF17
:1048B00041EC180B53EC182BAFF2002102A81EF0AC
:1048C00065FE732240F20B2102A805F0C5FB73229E
:1048D00040F24521232005F025FB3C48B0F90000BB
:1048E000C0F1F0003A493B4A92F9002001EB820105
:1048F0004988484300EE100AB8EEC00ADFED360AD8
:1049000080EE201A304880ED001A0068FCF7C7FFDF
:1049100041EC180B53EC182B30A102A81EF036FE08
:104920003F2240F24E2102A805F096FB2D48B0F937
:104930000000C0F1F0002649264A92F9002001EB60
:1049400082014988484300EE100AB8EEC00ADFED44
:10495000220A80EE201A1B4880ED001A0068FCF73E
:104960009EFF41EC180B53EC182B1CA102A81EF063
:104970000DFE5B224FF4137102A805F06DFB124887
:1049800090ED000A0F48D0ED000A30EE600A10EEFC
:10499000101A0846FCF783FF41EC180B53EC182B58
:1049A0000EA102A81EF0F2FD732240F24E2102A8D1
:1049B00005F052FB11B0BDEC028B00BD5CB30208E8
:1049C00027020020500200204C0200204602002056
:1049D00050B20208280200200050434725352E33EC
:1049E000665600004802002000B52DED028B91B004
:1049F00044F2F00008F037FA40F2B7122821FD48DF
:104A0000B0F9000006F062F940F2B7122821F94827
:104A1000B0F90000401C06F059F903203E23009035
:104A2000F448B0F9002010322F21B0F90000401DE9
:104A300006F06CFA40F2B7122821EF48B0F90000F6
:104A400006F044F9EC49B1F90010481E40F2B712E3
:104A5000282106F03BF90320E7490090B1F9001046
:104A60004A1FE549B1F90010A1F110003E232F21A2
:104A700006F04CFA002008F0F6F9E04808F00AFACF
:104A8000022008F073FA2C22DA480088801D01B257
:104A9000612005F047FAD84800880F3801B22D226E
:104AA000622005F03FFA002008F0DDF9042087239A
:104AB00040F27B22372100904FF4FA7006F026FA7C
:104AC0006FF07F4008F0CFF9042088234FF41F7265
:104AD0003621009040F2F31006F028F844F2F0007E
:104AE00008F0C1F903204D2340F207223E21009037
:104AF0004FF4FE7006F00AFA0320692340F2072201
:104B00005A2100904FF4FE7006F000FA002008F0E1
:104B1000AAF9BB4808F0BEF9022008F027FA3B22A8
:104B200040F2FD11612005F0FDF9582240F2FD111F
:104B3000622005F0F7F94FF6FF7008F094F9B148DC
:104B400008F0A8F9732240F20121232005F0EAF9C8
:104B5000A848B0F90000A0F5AA70AB49AB4A92F999
:104B6000002031F82210484300EE100AB8EEC00AC7
:104B7000DFEDA70A80EE201AA64880ED001AA248B1
:104B8000A24991F9001000EB8100408801280CD166
:104B9000A0480068FCF783FE41EC180B53EC182B7F
:104BA0009DA102A81EF0F2FC82E09748974991F976
:104BB000001000EB8100408802280CD19548006865
:104BC000FCF76DFE41EC180B53EC182B94A102A8D6
:104BD0001EF0DCFC6CE08C488C4991F9001000EB75
:104BE0008100408803280CD18A480068FCF757FEF2
:104BF00041EC180B53EC182B8BA102A81EF0C6FC3D
:104C000056E08148814991F9001000EB810040880D
:104C100004280CD17F480068FCF741FE41EC180BDA
:104C200053EC182B82A102A81EF0B0FC40E076489D
:104C3000764991F9001000EB8100408805280CD1DD
:104C400074480068FCF72BFE41EC180B53EC182B52
:104C500079A102A81EF09AFC2AE06B486B4991F9F1
:104C6000001000EB8100408806280CD169480068DC
:104C7000FCF715FE41EC180B53EC182B70A102A8A1
:104C80001EF084FC14E06048604991F9001000EBCC
:104C90008100408807280BD15E480068FCF7FFFDC3
:104CA00041EC180B53EC182B67A102A81EF06EFC08
:104CB0003F2240F20B2102A805F0CEF94E48B0F990
:104CC0000000A0F5AA705049504A92F9002031F82E
:104CD0002210484300EE100AB8EEC00ADFED4C0A7D
:104CE00080EE201A5A4880ED001A4748474991F94A
:104CF000001000EB8100408801280CD15448006866
:104D0000FCF7CDFD41EC180B53EC182B42A102A887
:104D10001EF03CFCB4E03C483C4991F9001000EB2B
:104D20008100408802280CD149480068FCF7B7FD93
:104D300041EC180B53EC182B39A102A81EF026FCED
:104D40009EE03148314991F9001000EB8100408824
:104D500003280CD13E480068FCF7A1FD41EC180B7C
:104D600053EC182B30A102A81EF010FC88E0264856
:104D7000264991F9001000EB8100408804280CD1ED
:104D800033480068FCF78BFD41EC180B53EC182BF3
:104D900027A102A81EF0FAFB72E01B481B4991F9FB
:104DA000001000EB8100408805280CD128480068DD
:104DB000FCF775FD41EC180B53EC182B1EA102A853
:104DC0001EF0E4FB5CE01048104991F9001000EB84
:104DD0008100408806283DD11D480068FCF75FFD32
:104DE00041EC180B53EC182B15A102A81EF0CEFBBA
:104DF00046E0000042020020440200202026030872
:104E0000501603083CFB02085CB30208270200208E
:104E100000007A444C02002025352E31667573005F
:104E200025352E33666D730025352E32666D730081
:104E300025352E31666D730025352E3366730000DF
:104E400025352E326673000025352E31667300003D
:104E500050020020BB48BC4991F9001000EB8100D2
:104E6000408807280CD1B9480068FCF718FD41ECD0
:104E7000180B53EC182BAFF2300102A81EF086FB82
:104E80005B2240F20B2102A805F0E6F8AD48AE49DE
:104E900091F9001000EB81004088012816D1AB4841
:104EA00090ED000AAA48D0ED000A30EE600A10EE3C
:104EB000101A0846FCF7F3FC41EC180B53EC182BC6
:104EC000AFF2AC0102A81EF061FBBEE09D489E4916
:104ED00091F9001000EB81004088022816D19B4810
:104EE00090ED000A9A48D0ED000A30EE600A10EE0C
:104EF000101A0846FCF7D3FC41EC180B53EC182BA6
:104F0000AFF2E40102A81EF041FB9EE08D488E49FD
:104F100091F9001000EB81004088032816D18B48DE
:104F200090ED000A8A48D0ED000A30EE600A10EEDB
:104F3000101A0846FCF7B3FC41EC180B53EC182B85
:104F4000AFF21C1102A81EF021FB7EE07D487E49D5
:104F500091F9001000EB81004088042816D17B48AD
:104F600090ED000A7A48D0ED000A30EE600A10EEAB
:104F7000101A0846FCF793FC41EC180B53EC182B65
:104F8000AFF2541102A81EF001FB5EE06D486E49BD
:104F900091F9001000EB81004088052816D16B487C
:104FA00090ED000A6A48D0ED000A30EE600A10EE7B
:104FB000101A0846FCF773FC41EC180B53EC182B45
:104FC000AFF28C1102A81EF0E1FA3EE05D485E49A6
:104FD00091F9001000EB81004088062816D15B484B
:104FE00090ED000A5A48D0ED000A30EE600A10EE4B
:104FF000101A0846FCF753FC41EC180B53EC182B25
:10500000AFF2C41102A81EF0C1FA1EE04D484E498D
:1050100091F9001000EB81004088072815D14B481A
:1050200090ED000A4A48D0ED000A30EE600A10EE1A
:10503000101A0846FCF733FC41EC180B53EC182B04
:10504000AFF2FC1102A81EF0A1FA732240F20B216C
:1050500002A805F001F8732240F24521232004F054
:1050600061FF3C48B0F90000C0F1F0003A493B4A0A
:1050700092F9002001EB82014988484300EE100AB2
:10508000B8EEC00ADFED360A80EE201A304880ED17
:10509000001A0068FCF703FC41EC180B53EC182BCA
:1050A00030A102A81EF072FA3F2240F24E2102A85F
:1050B00004F0D2FF2D48B0F90000C0F1F0002649FD
:1050C000264A92F9002001EB82014988484300EE0C
:1050D000100AB8EEC00ADFED220A80EE201A1B4843
:1050E00080ED001A0068FCF7DAFB41EC180B53EC7A
:1050F000182B1CA102A81EF049FA5B224FF4137171
:1051000002A804F0A9FF124890ED000A0F48D0ED64
:10511000000A30EE600A10EE101A0846FCF7BFFBDA
:1051200041EC180B53EC182B0EA102A81EF02EFA1E
:10513000732240F24E2102A804F08EFF11B0BDECA4
:10514000028B00BD5CB30208270200205002002041
:105150004C0200204602002050B202082802002023
:105160000050434725352E33665600004802002084
:105170001FB5002415E06148B0F9000020446049E3
:10518000B1F9001008445F4931F8100000EE100A30
:10519000B8EE400A5C4800EB840080ED000A601C19
:1051A00084B240F28A208442E5DB58480078012826
:1051B00009D140F28A20564B564A5121009001A84D
:1051C000FBF78FFB7CE051480078022809D140F2C0
:1051D0008A204F4B504A5121009001A8FBF781FBD8
:1051E0006EE04A480078032809D140F28A20484BF3
:1051F0004A4A5121009001A8FBF773FB60E0434845
:105200000078042809D140F28A20414B444A5121B8
:10521000009001A8FBF765FB52E03C4800780528A8
:1052200009D140F28A203A4B3E4A5121009001A810
:10523000FBF757FB44E035480078062809D140F2D7
:105240008A20334B384A5121009001A8FBF749FBD3
:1052500036E02E480078072809D140F28A202C4BEE
:10526000324A5121009001A8FBF73BFB28E0274878
:105270000078082809D140F28A20254B2C4A512178
:10528000009001A8FBF72DFB1AE0204800780928C0
:1052900009D140F28A201E4B264A5121009001A8D4
:1052A000FBF71FFB0CE0194800780A2808D140F2F0
:1052B0008A20174B204A5121009001A8FBF711FBCF
:1052C00040F28A231D4A104901A8FBF771F8002417
:1052D0000FE01A4904F1320001EB800090ED000A62
:1052E000BCEEC00A10EE100A154921F81400601C2B
:1052F00084B2B4F5167FECDB1FBD00003002002045
:10530000320200200A41012038BC0120090200209D
:1053100088D00120E4D4020828D602086CD70208FD
:10532000B0D80208F4D9020838DB02087CDC020895
:10533000C0DD020804DF020848E0020860C6012060
:105340000A1101201FB5002415E06148B0F90000E2
:1053500020446049B1F9001008445F4931F8100059
:1053600000EE100AB8EE400A5C4800EB840080EDC5
:10537000000A601C84B240F28A208442E5DB58486F
:105380000078012809D140F28A20564B564A512113
:10539000009001A8FBF7A5FA7CE0514800780228AC
:1053A00009D140F28A204F4B504A5121009001A868
:1053B000FBF797FA6EE04A480078032809D140F2DB
:1053C0008A20484B4A4A5121009001A8FBF789FAEC
:1053D00060E043480078042809D140F28A20414B1C
:1053E000444A5121009001A8FBF77BFA52E03C4867
:1053F0000078052809D140F28A203A4B3E4A5121D3
:10540000009001A8FBF76DFA44E0354800780628C3
:1054100009D140F28A20334B384A5121009001A82B
:10542000FBF75FFA36E02E480078072809D140F2F2
:105430008A202C4B324A5121009001A8FBF751FAE7
:1054400028E027480078082809D140F28A20254B17
:105450002C4A5121009001A8FBF743FA1AE020489A
:105460000078092809D140F28A201E4B264A512192
:10547000009001A8FBF735FA0CE0194800780A28DB
:1054800008D140F28A20174B204A5121009001A8F0
:10549000FBF727FA40F28A231D4A104901A8FAF7C0
:1054A00087FF00240FE01A4904F1320001EB80006D
:1054B00090ED000ABCEEC00A10EE100A154921F862
:1054C0001400601C84B2B4F5167FECDB1FBD000035
:1054D00030020020320200200A41012038BC0120A5
:1054E0000A02002088D001203CC8020880C90208B6
:1054F000C4CA020808CC02084CCD020890CE0208AB
:10550000D4CF020818D102085CD20208A0D3020846
:1055100060C601200A1101201FB5002415E0614872
:10552000B0F9000020446049B1F9001008445F4917
:1055300031F8100000EE100AB8EE400A5C4800EBAB
:10554000840080ED000A601C84B240F28A2084420C
:10555000E5DB58480078012809D140F28A20564BF3
:10556000564A5121009001A8FBF7BBF97CE0514855
:105570000078022809D140F28A204F4B504A51212D
:10558000009001A8FBF7ADF96EE04A4800780328C7
:1055900009D140F28A20484B4A4A5121009001A883
:1055A000FBF79FF960E043480078042809D140F2F6
:1055B0008A20414B444A5121009001A8FBF791F900
:1055C00052E03C480078052809D140F28A203A4B45
:1055D0003E4A5121009001A8FBF783F944E0354889
:1055E0000078062809D140F28A20334B384A5121ED
:1055F000009001A8FBF775F936E02E4800780728DF
:1056000009D140F28A202C4B324A5121009001A846
:10561000FBF767F928E027480078082809D140F20D
:105620008A20254B2C4A5121009001A8FBF759F9FB
:105630001AE020480078092809D140F28A201E4B40
:10564000264A5121009001A8FBF74BF90CE01948BC
:1056500000780A2808D140F28A20174B204A5121AD
:10566000009001A8FBF73DF940F28A231D4A10493A
:1056700001A8FAF79DFE00240FE01A4904F1320058
:1056800001EB800090ED000ABCEEC00A10EE100A9B
:10569000154921F81400601C84B2B4F5167FECDBC8
:1056A0001FBD000030020020320200200A4101200C
:1056B00038BC01200B02002088D0012094BB0208D6
:1056C000D8BC02081CBE020860BF0208A4C00208C1
:1056D000E8C102082CC3020870C40208B4C502085D
:1056E000F8C6020860C601200A1101208AB04FF4F2
:1056F0000060039000200290FD48FE4908600120F0
:10570000FD4908738873C8730875002405E020B24A
:10571000FA4921F82400601C84B2B4F5167FF6DB48
:105720004FF4006003900020029004A80399FBF757
:10573000AFF969E39FEDF20AF24880ED000A9FEDB0
:10574000F20AF24880ED000A9FEDEF0AF04880ED82
:10575000000AF0480088002877D1EF480068C0F5BB
:10576000205086B2ED4890F900000A286EDAB6F5AE
:10577000006F44DA06F5005087B23C4618E0E01BA3
:1057800000EB400085B2E64830F81400E54921F806
:105790001500E54830F81410E24A681C22F8101091
:1057A000E24830F81410A81C22F81010601C84B2D3
:1057B000B4F5205FE3DBC6F5006000EB400087B284
:1057C000002419E004EB440085B2D54830F81400F9
:1057D0007919D44A22F81100D34830F814107819F6
:1057E000401C22F81010D14830F814107819801C91
:1057F00022F81010601C84B2B442E3DB22E0A6F56C
:10580000006086B200241AE004EB440085B2A019BF
:10581000C34931F81000C34921F81500A019C24945
:1058200031F81010BF4A681C22F81010A019BF49A7
:1058300031F81010A81C22F81010601C84B2B4F5C6
:10584000006FE1DB0027002415E08FE1A9E0781C60
:1058500087B2B44830F81400B5490988884208DD99
:10586000B049601C31F81000B1490988884200DA5B
:1058700005E0601C84B241F2A8508442E7DB00BF1F
:1058800038B2AC4908800846B0F90000AA49B1F91D
:105890000010084400280CDAA648B0F90000642182
:1058A00090FBF1F000FB01F8C8F1000000B2A24942
:1058B0000880A048B0F900009F49B1F900100844E1
:1058C00041F2A85188420CDD9A48B0F90000081A4C
:1058D000642190FBF1F048430FFA80F89648A0F855
:1058E000008000241DE09348B0F900002044924954
:1058F000B1F9001008448B4931F810007C4921F8B7
:105900001400084630F8140000EE100AB8EE400A01
:105910007F48D0ED000A30EE200A80ED000A601CBE
:1059200084B2B4F5167FDEDB00240DE07D4830F84C
:10593000140000EE100AB8EE400A804800EB840024
:1059400080ED000A601C84B2B4F5006FEEDB0298B3
:10595000C3B27B4A794904A8FBF779F84FF4167271
:1059600076497748FAF7A6FC6C480078012804D1FC
:105970007448007808B1FFF7FBFB684800780528F9
:1059800004D17148007808B1FFF7DCFC6348007867
:10599000082805D16D480078002801D0FFF7BCFD2C
:1059A0000BE16B48007820BB5B480068C0F52050D5
:1059B000684908600846006867490968884207D353
:1059C0006448006864490968401A6249086008E050
:1059D0006048006800F520505F490968401A5D4939
:1059E00008605C480068B0F5167F02D30120584972
:1059F0000870C82E45DA42F23870304487B23C460F
:105A000018E0E01B00EB400085B2454830F8140078
:105A1000444921F81500444830F81410414A681CE4
:105A200022F81010414830F81410A81C22F8101069
:105A3000601C84B2B4F5205FE3DBC6F1C80000EB64
:105A4000400087B2002419E004EB440085B23448DA
:105A500030F814007919334A22F81100324830F82E
:105A600014107819401C22F81010304830F8141027
:105A70007819801C22F81010601C84B2B442E3DB59
:105A800021E0A6F1C80086B200241AE004EB44002D
:105A900085B2A019224931F81000224921F81500D9
:105AA000A019214931F810101E4A681C22F8101064
:105AB000A0191E4931F81010A81C22F81010601C03
:105AC00084B2C82CE2DB00244CE0164830F8140005
:105AD000074921F81400084630F8140000EE100AB7
